{
  "contractName": "NFTCart",
  "abi": [
    {
      "inputs": [],
      "stateMutability": "nonpayable",
      "type": "constructor"
    },
    {
      "inputs": [
        {
          "internalType": "address",
          "name": "",
          "type": "address"
        }
      ],
      "name": "balances",
      "outputs": [
        {
          "internalType": "uint256",
          "name": "",
          "type": "uint256"
        }
      ],
      "stateMutability": "view",
      "type": "function"
    },
    {
      "inputs": [],
      "name": "owner",
      "outputs": [
        {
          "internalType": "address payable",
          "name": "",
          "type": "address"
        }
      ],
      "stateMutability": "view",
      "type": "function"
    },
    {
      "stateMutability": "payable",
      "type": "receive"
    },
    {
      "inputs": [
        {
          "internalType": "uint256",
          "name": "amt",
          "type": "uint256"
        }
      ],
      "name": "pay",
      "outputs": [],
      "stateMutability": "nonpayable",
      "type": "function"
    },
    {
      "inputs": [],
      "name": "getBalance",
      "outputs": [
        {
          "internalType": "uint256",
          "name": "",
          "type": "uint256"
        }
      ],
      "stateMutability": "view",
      "type": "function"
    }
  ],
  "bytecode": "0x608060405234801561001057600080fd5b50336000806101000a81548173ffffffffffffffffffffffffffffffffffffffff021916908373ffffffffffffffffffffffffffffffffffffffff160217905550610502806100606000396000f3fe6080604052600436106100435760003560e01c806312065fe01461009257806327e235e3146100bd5780638da5cb5b146100fa578063c290d691146101255761008d565b3661008d576000341161008b576040517f08c379a0000000000000000000000000000000000000000000000000000000008152600401610082906102e7565b60405180910390fd5b005b600080fd5b34801561009e57600080fd5b506100a761014e565b6040516100b49190610320565b60405180910390f35b3480156100c957600080fd5b506100e460048036038101906100df919061039e565b610156565b6040516100f19190610320565b60405180910390f35b34801561010657600080fd5b5061010f61016e565b60405161011c91906103ec565b60405180910390f35b34801561013157600080fd5b5061014c60048036038101906101479190610433565b610192565b005b600047905090565b60016020528060005260406000206000915090505481565b60008054906101000a900473ffffffffffffffffffffffffffffffffffffffff1681565b6000819050600081116101da576040517f08c379a00000000000000000000000000000000000000000000000000000000081526004016101d1906104ac565b60405180910390fd5b6000600160003373ffffffffffffffffffffffffffffffffffffffff1673ffffffffffffffffffffffffffffffffffffffff1681526020019081526020016000208190555060008054906101000a900473ffffffffffffffffffffffffffffffffffffffff1673ffffffffffffffffffffffffffffffffffffffff166108fc829081150290604051600060405180830381858888f19350505050158015610285573d6000803e3d6000fd5b505050565b600082825260208201905092915050565b7f416d6f756e74206d7573742062652067726561746572207468616e207a65726f600082015250565b60006102d160208361028a565b91506102dc8261029b565b602082019050919050565b60006020820190508181036000830152610300816102c4565b9050919050565b6000819050919050565b61031a81610307565b82525050565b60006020820190506103356000830184610311565b92915050565b600080fd5b600073ffffffffffffffffffffffffffffffffffffffff82169050919050565b600061036b82610340565b9050919050565b61037b81610360565b811461038657600080fd5b50565b60008135905061039881610372565b92915050565b6000602082840312156103b4576103b361033b565b5b60006103c284828501610389565b91505092915050565b60006103d682610340565b9050919050565b6103e6816103cb565b82525050565b600060208201905061040160008301846103dd565b92915050565b61041081610307565b811461041b57600080fd5b50565b60008135905061042d81610407565b92915050565b6000602082840312156104495761044861033b565b5b60006104578482850161041e565b91505092915050565b7f4e6f2066756e647320617661696c61626c6520746f207472616e736665720000600082015250565b6000610496601e8361028a565b91506104a182610460565b602082019050919050565b600060208201905081810360008301526104c581610489565b905091905056fea264697066735822122045a68364abbf63f086ce409e5e673ebf597c11511fa3fa0c3fdc1e15a9dfa9a264736f6c63430008130033",
  "immutableReferences": {},
  "source": "// SPDX-License-Identifier: GPL-3.0\r\npragma solidity >=0.5.0 <0.9.0;\r\n\r\ncontract NFTCart {\r\n    address payable public owner;\r\n    mapping(address => uint) public balances;\r\n    //uint public totalAmount;\r\n\r\n    constructor() {\r\n        owner = payable(msg.sender); // Set the contract deployer as the owner\r\n    }\r\n\r\n    receive() external payable {\r\n        require(msg.value > 0, \"Amount must be greater than zero\");\r\n        //totalAmount += msg.value;\r\n    }\r\n\r\n    // function pay() external {\r\n    //     require(totalAmount > 0, \"No funds available to transfer\");\r\n\r\n    //     uint amountToTransfer = totalAmount;\r\n    //     totalAmount = 0;\r\n    //     owner.transfer(amountToTransfer);\r\n    // }\r\n    function pay(uint amt)  external{\r\n        uint totalAmount = amt;//balances[msg.sender]\r\n        require(totalAmount > 0, \"No funds available to transfer\");\r\n\r\n        balances[msg.sender] = 0;\r\n        owner.transfer(totalAmount);\r\n    }\r\n    function getBalance() public view returns (uint) {\r\n        return address(this).balance;\r\n    }\r\n}\r\n",
  "sourcePath": "D:\\PROJECTS\\NFT Market\\contracts\\1_nft.sol",
  "compiler": {
    "name": "solc",
    "version": "0.8.19+commit.7dd6d404.Emscripten.clang"
  },
  "schemaVersion": "3.4.13",
  "updatedAt": "2023-06-14T05:37:59.709Z",
  "devdoc": {
    "kind": "dev",
    "methods": {},
    "version": 1
  },
  "userdoc": {
    "kind": "user",
    "methods": {},
    "version": 1
  }
}